S00E000074696E7931332E73726563EE
S113000009C021C020C01FC01EC01DC01CC01BC011
S113001047C019C011241FBECFE9CDBF10E0A0E630
S1130020B0E0E6E3F2E002C005900D92A236B1071B
S1130030D9F720E0A2E6B0E001C01D92A137B207D3
S1130040E1F707D0F6C0DCCF80E287B981E086B95A
S1130050089580E886BD16BC85B7806185BFE6D06B
S1130060889518D0811148D0E0D0FACF81E88FBDAF
S1130070B89A82E083BF3CC01FBC08959FB581E05D
S1130080911180E0089585B7806285BF789481E4FA
S113009081BD0895809162008111109262000895DB
S11300A01F920F920FB60F9211248F939F93AF93C9
S11300B0BF938091630090916400A0916500B0911A
S11300C066000296A11DB11D8093630090936400A5
S11300D0A0936500B093660081E080936200BF91B5
S11300E0AF919F918F910F900FBE0F901F90189515
S11300F085B78F7E85BF0895C39A82E08A95F1F70C
S113010000C026B3C39880916B0090916C00009757
S113011011F0019725C023FD6BC08091630090917D
S11301206400A0916500B091660040916700509111
S113013068006091690070916A00841B950BA60B9E
S1130140B70B8E379105A105B10578F086B78823E2
S113015061F016BE81E0809360008EDF8AE090E05B
S113016090936C0080936B0043C08091600088235F
S113017019F086B7865F02C086B78A5086BF86B7F5
S11301808A3F41F4109260008AE090E090936C0002
S113019080936B0086B781110CC016BE81E08093FA
S11301A060006ADF8AE090E090936C0080936B00BB
S11301B003C064DF81115ADF80E291E0A0E0B0E087
S11301C080936D0090936E00A0936F00B0937000C5
S11301D08091630090916400A0916500B0916600E5
S11301E08093670090936800A0936900B0936A00BD
S11301F080916D0090916E00A0916F00B09170009D
S11302000097A105B10561F00197A109B109809397
S11302106D0090936E00A0936F00B09370000895EA
S113022016BE81E08093600027CF08950DDF2BDF99
S10902301DCFF894FFCF7E
S10502360100C1
S9030000FC
