S00E000074696E7938352E73726563E5
S11300000EC028C027C026C011C189C023C022C089
S113001021C020C01FC01EC041C01CC01BC0112471
S11300201FBECFE5D2E0DEBFCDBF10E0A0E6B0E05A
S1130030ECE3F7E002C005900D92AA38B107D9F7B6
S113004020E0AAE8B0E001C01D92AF3AB207E1F7A0
S11300500AD072C3D5CF80E287B981E086B908950A
S1130060C29ABA9A0895FCDF80E886BD16BC85B7AB
S1130070806185BFD0D188950BD08111CAD1CAD1F6
S1130080FACF85B7806285BF789482E481BD0895F4
S113009080918A00811110928A0008951F920F9214
S11300A00FB60F9211248F939F93AF93BF938091B8
S11300B08B0090918C00A0918D00B0918E000496DD
S11300C0A11DB11D80938B0090938C00A0938D0093
S11300D0B0938E0081E080938A00BF91AF919F918D
S11300E08F910F900FBE0F901F90189585B78F7E3C
S11300F085BF089586E089BF87B3836087BBF6CF49
S1130100E82FF0E0EE0FFF1FE156FF4F70831182DE
S11301106095811102C062BF08956FBD08951F925A
S11301200F920FB60F921124CF92DF92EF92FF92AB
S11301302F933F934F935F936F937F938F939F93EB
S1130140AF93BF93EF93FF9380919F009091A00092
S1130150009731F001979093A00080939F0051C0C5
S11301608091A300882389F06091A5007091A60076
S11301708091A7009091A800BAD180E0C1DF88B334
S113018098B38170892788BB36C06091A5007091AF
S1130190A6008091A7009091A800A9D180E0B0DFCB
S11301A098B328B3892F90E0809590958170992712
S11301B0822788BBC090A500D090A600E090A7003D
S11301C0F090A800A7019601C701B6014AD2209178
S11301D09700309198004091990050919A0041D233
S11301E0A701960120D16093A5007093A600809387
S11301F0A7009093A8009091A30081E089278093A1
S1130200A300FF91EF91BF91AF919F918F917F9147
S11302106F915F914F913F912F91FF90EF90DF90FD
S1130220CF900F900FBE0F901F9018951F920F92B2
S11302300FB60F921124CF92DF92EF92FF922F9379
S11302403F934F935F936F937F938F939F93AF935A
S1130250BF93EF93FF938091A1009091A200009728
S113026031F001979093A2008093A10051C0809136
S1130270A400882389F06091A9007091AA0080915C
S1130280AB009091AC0033D181E03ADF88B398B3EE
S11302908270892788BB36C06091A9007091AA003A
S11302A08091AB009091AC0022D181E029DF98B31A
S11302B028B3892F90E080959095827099278227A2
S11302C088BBC090A900D090AA00E090AB00F09049
S11302D0AC00A7019601C701B601C3D120919B00D0
S11302E030919C0040919D0050919E00BAD1A7018D
S11302F0960199D06093A9007093AA008093AB00F3
S11303009093AC009091A40081E089278093A4008D
S1130310FF91EF91BF91AF919F918F917F916F91D9
S11303205F914F913F912F91FF90EF90DF90CF908D
S11303300F900FBE0F901F901895CF92DF92EF92FF
S1130340FF928091910090919200009709F057C01C
S11303508091950090919600069761F41092960012
S113036010929500109294001092930010929000B5
S113037010928F008091950090919600FC01EE0FF1
S1130380FF1FE258FF4F608171816115710509F10A
S1130390880F991F880F991FFC01EA59FF4FC080ED
S11303A0D180E280F38080E090E0CDD06093A5001E
S11303B07093A6008093A7009093A800C092970022
S11303C0D0929800E0929900F0929A0082E083BF64
S11303D001C013BE2091950030919600F901E05AB6
S11303E0FF4F808190E00197909392008093910059
S11303F02F5F3F4F309396002093950005C00197DF
S11304009093920080939100FF90EF90DF90CF90B3
S1130410089593CF089587B3896087BBC39A1BDE81
S113042030DE68CE5058BB27AA270ED0E0C0D1D00A
S113043030F0D6D020F031F49F3F11F41EF4C6C042
S11304400EF4E095E7FBBCC0E92FE2D080F3BA17C5
S1130450620773078407950718F071F49EF5FAC0D4
S11304600EF4E0950B2EBA2FA02D0B01B9019001CB
S11304700C01CA01A0011124FF27591B99F0593F0F
S113048050F4503E68F11A16F040A22F232F342F57
S11304904427585FF3CF469537952795A795F040A5
S11304A05395C9F77EF41F16BA0B620B730B840BBA
S11304B0BAF09150A1F0FF0FBB1F661F771F881F72
S11304C0C2F70EC0BA0F621F731F841F48F48795CA
S11304D077956795B795F7959E3F08F0B3CF9395B9
S11304E0880F08F09927EE0F97958795089598D06F
S11304F088F09F5790F0B92F9927B751A0F0D1F009
S1130500660F771F881F991F1AF0BA95C9F712C092
S1130510B13081F09FD0B1E008959CC0672F782F4F
S11305208827B85F39F0B93FCCF3869577956795FE
S1130530B395D9F73EF490958095709561957F4F6A
S11305408F4F9F4F0895E89409C097FB3EF4909510
S11305508095709561957F4F8F4F9F4F9923A9F098
S1130560F92F96E9BB279395F69587957795679527
S1130570B795F111F8CFFAF4BB0F11F460FF1BC06B
S11305806F5F7F4F8F4F9F4F16C0882311F096E9FE
S113059011C0772321F09EE8872F762F05C06623AC
S11305A071F096E8862F70E060E02AF09A95660F65
S11305B0771F881FDAF7880F9695879597F908951E
S11305C097F99F6780E870E060E008959FEF80EC02
S11305D0089500240A9416161706180609060895A5
S11305E000240A9412161306140605060895092E0B
S11305F00394000C11F4882352F0BB0F40F4BF2B7A
S113060011F460FF04C06F5F7F4F8F4F9F4F0895B9
S113061057FD9058440F551F59F05F3F71F04795AF
S1130620880F97FB991F61F09F3F79F08795089594
S1130630121613061406551FF2CF4695F1DF08C0B3
S1130640161617061806991FF1CF869571056105D0
S113065008940895E894BB2766277727CB0197F978
S113066008950AD0C4CFB5DF28F0BADF18F0952377
S113067009F0A6CFABCFEFCFCBDFA8F39923D9F303
S11306805523C9F3950F50E0551FAA27EE27FF27DE
S1130690BB2700240894679520F4E20FF31FB41FCE
S11306A00A1E220F331F441FAA1F6695A9F77795C8
S11306B030F4F30FB41F0A1E121E08F46395330FAF
S11306C0441FAA1F221F769599F7879520F4B40F2B
S11306D00A1E121E631F440FAA1F221F331F869572
S11306E0A9F7862F712D602D11249F5750408AF051
S11306F0E1F088234AF0EE0FFF1FBB1F661F771F30
S1130700881F91505040A9F79E3F510570F058CF73
S1130710A2CF5F3FECF3983EDCF38695779567951F
S1130720B795F795E7959F5FC1F7FE2B880F911D4D
S10F07309695879597F90895F894FFCFEB
S113073C01100508080A0761C53600000000000016
S113074C0000DE7B3D35DE7B3DB500000000F4018E
S10D075C58020000F40158020000E6
S9030000FC
